{"project/contracts/SecureOTARegistry.sol":{"SecureOTARegistry":{"abi":[{"inputs":[],"stateMutability":"nonpayable","type":"constructor"},{"anonymous":false,"inputs":[{"indexed":true,"internalType":"uint256","name":"version","type":"uint256"},{"indexed":false,"internalType":"bytes32","name":"sha256Hash","type":"bytes32"},{"indexed":false,"internalType":"string","name":"downloadUrl","type":"string"}],"name":"FirmwarePublished","type":"event"},{"inputs":[],"name":"admin","outputs":[{"internalType":"address","name":"","type":"address"}],"stateMutability":"view","type":"function"},{"inputs":[{"internalType":"uint256","name":"_version","type":"uint256"}],"name":"getRelease","outputs":[{"internalType":"uint256","name":"version","type":"uint256"},{"internalType":"bytes32","name":"sha256Hash","type":"bytes32"},{"internalType":"string","name":"downloadUrl","type":"string"}],"stateMutability":"view","type":"function"},{"inputs":[],"name":"latestVersion","outputs":[{"internalType":"uint256","name":"","type":"uint256"}],"stateMutability":"view","type":"function"},{"inputs":[{"internalType":"uint256","name":"_version","type":"uint256"},{"internalType":"bytes32","name":"_hash","type":"bytes32"},{"internalType":"string","name":"_url","type":"string"}],"name":"publishRelease","outputs":[],"stateMutability":"nonpayable","type":"function"}],"evm":{"bytecode":{"linkReferences":{},"object":"608060405234801561000f575f80fd5b50335f806101000a81548173ffffffffffffffffffffffffffffffffffffffff021916908373ffffffffffffffffffffffffffffffffffffffff160217905550610ce88061005c5f395ff3fe608060405234801561000f575f80fd5b506004361061004a575f3560e01c806379af2b9a1461004e578063b321505a14610080578063c07f47d41461009c578063f851a440146100ba575b5f80fd5b61006860048036038101906100639190610438565b6100d8565b60405161007793929190610514565b60405180910390f35b61009a600480360381019061009591906106a6565b610209565b005b6100a46103cb565b6040516100b19190610712565b60405180910390f35b6100c26103d1565b6040516100cf919061076a565b60405180910390f35b5f8060605f60015f8681526020019081526020015f206040518060800160405290815f82015481526020016001820154815260200160028201548152602001600382018054610126906107b0565b80601f0160208091040260200160405190810160405280929190818152602001828054610152906107b0565b801561019d5780601f106101745761010080835404028352916020019161019d565b820191905f5260205f20905b81548152906001019060200180831161018057829003601f168201915b50505050508152505090505f815f0151036101ed576040517f08c379a00000000000000000000000000000000000000000000000000000000081526004016101e490610850565b60405180910390fd5b805f015181602001518260600151935093509350509193909250565b5f8054906101000a900473ffffffffffffffffffffffffffffffffffffffff1673ffffffffffffffffffffffffffffffffffffffff163373ffffffffffffffffffffffffffffffffffffffff1614610296576040517f08c379a000000000000000000000000000000000000000000000000000000000815260040161028d906108de565b60405180910390fd5b60025483116102da576040517f08c379a00000000000000000000000000000000000000000000000000000000081526004016102d19061096c565b60405180910390fd5b5f801b820361031e576040517f08c379a0000000000000000000000000000000000000000000000000000000008152600401610315906109fa565b60405180910390fd5b60405180608001604052808481526020018381526020014281526020018281525060015f8581526020019081526020015f205f820151815f0155602082015181600101556040820151816002015560608201518160030190816103819190610bb5565b5090505082600281905550827f56fb4eb043b47a4c15eb4799beb5df7f6cda99ed40d61c066279df6ec30dd0ad83836040516103be929190610c84565b60405180910390a2505050565b60025481565b5f8054906101000a900473ffffffffffffffffffffffffffffffffffffffff1681565b5f604051905090565b5f80fd5b5f80fd5b5f819050919050565b61041781610405565b8114610421575f80fd5b50565b5f813590506104328161040e565b92915050565b5f6020828403121561044d5761044c6103fd565b5b5f61045a84828501610424565b91505092915050565b61046c81610405565b82525050565b5f819050919050565b61048481610472565b82525050565b5f81519050919050565b5f82825260208201905092915050565b5f5b838110156104c15780820151818401526020810190506104a6565b5f8484015250505050565b5f601f19601f8301169050919050565b5f6104e68261048a565b6104f08185610494565b93506105008185602086016104a4565b610509816104cc565b840191505092915050565b5f6060820190506105275f830186610463565b610534602083018561047b565b818103604083015261054681846104dc565b9050949350505050565b61055981610472565b8114610563575f80fd5b50565b5f8135905061057481610550565b92915050565b5f80fd5b5f80fd5b7f4e487b71000000000000000000000000000000000000000000000000000000005f52604160045260245ffd5b6105b8826104cc565b810181811067ffffffffffffffff821117156105d7576105d6610582565b5b80604052505050565b5f6105e96103f4565b90506105f582826105af565b919050565b5f67ffffffffffffffff82111561061457610613610582565b5b61061d826104cc565b9050602081019050919050565b828183375f83830152505050565b5f61064a610645846105fa565b6105e0565b9050828152602081018484840111156106665761066561057e565b5b61067184828561062a565b509392505050565b5f82601f83011261068d5761068c61057a565b5b813561069d848260208601610638565b91505092915050565b5f805f606084860312156106bd576106bc6103fd565b5b5f6106ca86828701610424565b93505060206106db86828701610566565b925050604084013567ffffffffffffffff8111156106fc576106fb610401565b5b61070886828701610679565b9150509250925092565b5f6020820190506107255f830184610463565b92915050565b5f73ffffffffffffffffffffffffffffffffffffffff82169050919050565b5f6107548261072b565b9050919050565b6107648161074a565b82525050565b5f60208201905061077d5f83018461075b565b92915050565b7f4e487b71000000000000000000000000000000000000000000000000000000005f52602260045260245ffd5b5f60028204905060018216806107c757607f821691505b6020821081036107da576107d9610783565b5b50919050565b7f526571756573746564206669726d776172652072656c6561736520646f6573205f8201527f6e6f742065786973740000000000000000000000000000000000000000000000602082015250565b5f61083a602983610494565b9150610845826107e0565b604082019050919050565b5f6020820190508181035f8301526108678161082e565b9050919050565b7f43616c6c6572206973206e6f742074686520617574686f72697a65642061646d5f8201527f696e6973747261746f7200000000000000000000000000000000000000000000602082015250565b5f6108c8602a83610494565b91506108d38261086e565b604082019050919050565b5f6020820190508181035f8301526108f5816108bc565b9050919050565b7f56657273696f6e206d757374206265206d6f6e6f746f6e696320696e637265615f8201527f73696e6700000000000000000000000000000000000000000000000000000000602082015250565b5f610956602483610494565b9150610961826108fc565b604082019050919050565b5f6020820190508181035f8301526109838161094a565b9050919050565b7f496e76616c69642063727970746f677261706869632068617368206964656e745f8201527f6974790000000000000000000000000000000000000000000000000000000000602082015250565b5f6109e4602383610494565b91506109ef8261098a565b604082019050919050565b5f6020820190508181035f830152610a11816109d8565b9050919050565b5f819050815f5260205f209050919050565b5f6020601f8301049050919050565b5f82821b905092915050565b5f60088302610a747fffffffffffffffffffffffffffffffffffffffffffffffffffffffffffffffff82610a39565b610a7e8683610a39565b95508019841693508086168417925050509392505050565b5f819050919050565b5f610ab9610ab4610aaf84610405565b610a96565b610405565b9050919050565b5f819050919050565b610ad283610a9f565b610ae6610ade82610ac0565b848454610a45565b825550505050565b5f90565b610afa610aee565b610b05818484610ac9565b505050565b5b81811015610b2857610b1d5f82610af2565b600181019050610b0b565b5050565b601f821115610b6d57610b3e81610a18565b610b4784610a2a565b81016020851015610b56578190505b610b6a610b6285610a2a565b830182610b0a565b50505b505050565b5f82821c905092915050565b5f610b8d5f1984600802610b72565b1980831691505092915050565b5f610ba58383610b7e565b9150826002028217905092915050565b610bbe8261048a565b67ffffffffffffffff811115610bd757610bd6610582565b5b610be182546107b0565b610bec828285610b2c565b5f60209050601f831160018114610c1d575f8415610c0b578287015190505b610c158582610b9a565b865550610c7c565b601f198416610c2b86610a18565b5f5b82811015610c5257848901518255600182019150602085019450602081019050610c2d565b86831015610c6f5784890151610c6b601f891682610b7e565b8355505b6001600288020188555050505b505050505050565b5f604082019050610c975f83018561047b565b8181036020830152610ca981846104dc565b9050939250505056fea26469706673582212205a6e9a0906c5f44a750a733b5df050f04ee0f1a27e2ce4ac195a0b25b7b905fd64736f6c63430008140033","opcodes":"PUSH1 0x80 PUSH1 0x40 MSTORE CALLVALUE DUP1 ISZERO PUSH2 0xF JUMPI PUSH0 DUP1 REVERT JUMPDEST POP CALLER PUSH0 DUP1 PUSH2 0x100 EXP DUP2 SLOAD DUP2 PUSH20 0xFFFFFFFFFFFFFFFFFFFFFFFFFFFFFFFFFFFFFFFF MUL NOT AND SWAP1 DUP4 PUSH20 0xFFFFFFFFFFFFFFFFFFFFFFFFFFFFFFFFFFFFFFFF AND MUL OR SWAP1 SSTORE POP PUSH2 0xCE8 DUP1 PUSH2 0x5C PUSH0 CODECOPY PUSH0 RETURN INVALID PUSH1 0x80 PUSH1 0x40 MSTORE CALLVALUE DUP1 ISZERO PUSH2 0xF JUMPI PUSH0 DUP1 REVERT JUMPDEST POP PUSH1 0x4 CALLDATASIZE LT PUSH2 0x4A JUMPI PUSH0 CALLDATALOAD PUSH1 0xE0 SHR DUP1 PUSH4 0x79AF2B9A EQ PUSH2 0x4E JUMPI DUP1 PUSH4 0xB321505A EQ PUSH2 0x80 JUMPI DUP1 PUSH4 0xC07F47D4 EQ PUSH2 0x9C JUMPI DUP1 PUSH4 0xF851A440 EQ PUSH2 0xBA JUMPI JUMPDEST PUSH0 DUP1 REVERT JUMPDEST PUSH2 0x68 PUSH1 0x4 DUP1 CALLDATASIZE SUB DUP2 ADD SWAP1 PUSH2 0x63 SWAP2 SWAP1 PUSH2 0x438 JUMP JUMPDEST PUSH2 0xD8 JUMP JUMPDEST PUSH1 0x40 MLOAD PUSH2 0x77 SWAP4 SWAP3 SWAP2 SWAP1 PUSH2 0x514 JUMP JUMPDEST PUSH1 0x40 MLOAD DUP1 SWAP2 SUB SWAP1 RETURN JUMPDEST PUSH2 0x9A PUSH1 0x4 DUP1 CALLDATASIZE SUB DUP2 ADD SWAP1 PUSH2 0x95 SWAP2 SWAP1 PUSH2 0x6A6 JUMP JUMPDEST PUSH2 0x209 JUMP JUMPDEST STOP JUMPDEST PUSH2 0xA4 PUSH2 0x3CB JUMP JUMPDEST PUSH1 0x40 MLOAD PUSH2 0xB1 SWAP2 SWAP1 PUSH2 0x712 JUMP JUMPDEST PUSH1 0x40 MLOAD DUP1 SWAP2 SUB SWAP1 RETURN JUMPDEST PUSH2 0xC2 PUSH2 0x3D1 JUMP JUMPDEST PUSH1 0x40 MLOAD PUSH2 0xCF SWAP2 SWAP1 PUSH2 0x76A JUMP JUMPDEST PUSH1 0x40 MLOAD DUP1 SWAP2 SUB SWAP1 RETURN JUMPDEST PUSH0 DUP1 PUSH1 0x60 PUSH0 PUSH1 0x1 PUSH0 DUP7 DUP2 MSTORE PUSH1 0x20 ADD SWAP1 DUP2 MSTORE PUSH1 0x20 ADD PUSH0 KECCAK256 PUSH1 0x40 MLOAD DUP1 PUSH1 0x80 ADD PUSH1 0x40 MSTORE SWAP1 DUP2 PUSH0 DUP3 ADD SLOAD DUP2 MSTORE PUSH1 0x20 ADD PUSH1 0x1 DUP3 ADD SLOAD DUP2 MSTORE PUSH1 0x20 ADD PUSH1 0x2 DUP3 ADD SLOAD DUP2 MSTORE PUSH1 0x20 ADD PUSH1 0x3 DUP3 ADD DUP1 SLOAD PUSH2 0x126 SWAP1 PUSH2 0x7B0 JUMP JUMPDEST DUP1 PUSH1 0x1F ADD PUSH1 0x20 DUP1 SWAP2 DIV MUL PUSH1 0x20 ADD PUSH1 0x40 MLOAD SWAP1 DUP2 ADD PUSH1 0x40 MSTORE DUP1 SWAP3 SWAP2 SWAP1 DUP2 DUP2 MSTORE PUSH1 0x20 ADD DUP3 DUP1 SLOAD PUSH2 0x152 SWAP1 PUSH2 0x7B0 JUMP JUMPDEST DUP1 ISZERO PUSH2 0x19D JUMPI DUP1 PUSH1 0x1F LT PUSH2 0x174 JUMPI PUSH2 0x100 DUP1 DUP4 SLOAD DIV MUL DUP4 MSTORE SWAP2 PUSH1 0x20 ADD SWAP2 PUSH2 0x19D JUMP JUMPDEST DUP3 ADD SWAP2 SWAP1 PUSH0 MSTORE PUSH1 0x20 PUSH0 KECCAK256 SWAP1 JUMPDEST DUP2 SLOAD DUP2 MSTORE SWAP1 PUSH1 0x1 ADD SWAP1 PUSH1 0x20 ADD DUP1 DUP4 GT PUSH2 0x180 JUMPI DUP3 SWAP1 SUB PUSH1 0x1F AND DUP3 ADD SWAP2 JUMPDEST POP POP POP POP POP DUP2 MSTORE POP POP SWAP1 POP PUSH0 DUP2 PUSH0 ADD MLOAD SUB PUSH2 0x1ED JUMPI PUSH1 0x40 MLOAD PUSH32 0x8C379A000000000000000000000000000000000000000000000000000000000 DUP2 MSTORE PUSH1 0x4 ADD PUSH2 0x1E4 SWAP1 PUSH2 0x850 JUMP JUMPDEST PUSH1 0x40 MLOAD DUP1 SWAP2 SUB SWAP1 REVERT JUMPDEST DUP1 PUSH0 ADD MLOAD DUP2 PUSH1 0x20 ADD MLOAD DUP3 PUSH1 0x60 ADD MLOAD SWAP4 POP SWAP4 POP SWAP4 POP POP SWAP2 SWAP4 SWAP1 SWAP3 POP JUMP JUMPDEST PUSH0 DUP1 SLOAD SWAP1 PUSH2 0x100 EXP SWAP1 DIV PUSH20 0xFFFFFFFFFFFFFFFFFFFFFFFFFFFFFFFFFFFFFFFF AND PUSH20 0xFFFFFFFFFFFFFFFFFFFFFFFFFFFFFFFFFFFFFFFF AND CALLER PUSH20 0xFFFFFFFFFFFFFFFFFFFFFFFFFFFFFFFFFFFFFFFF AND EQ PUSH2 0x296 JUMPI PUSH1 0x40 MLOAD PUSH32 0x8C379A000000000000000000000000000000000000000000000000000000000 DUP2 MSTORE PUSH1 0x4 ADD PUSH2 0x28D SWAP1 PUSH2 0x8DE JUMP JUMPDEST PUSH1 0x40 MLOAD DUP1 SWAP2 SUB SWAP1 REVERT JUMPDEST PUSH1 0x2 SLOAD DUP4 GT PUSH2 0x2DA JUMPI PUSH1 0x40 MLOAD PUSH32 0x8C379A000000000000000000000000000000000000000000000000000000000 DUP2 MSTORE PUSH1 0x4 ADD PUSH2 0x2D1 SWAP1 PUSH2 0x96C JUMP JUMPDEST PUSH1 0x40 MLOAD DUP1 SWAP2 SUB SWAP1 REVERT JUMPDEST PUSH0 DUP1 SHL DUP3 SUB PUSH2 0x31E JUMPI PUSH1 0x40 MLOAD PUSH32 0x8C379A000000000000000000000000000000000000000000000000000000000 DUP2 MSTORE PUSH1 0x4 ADD PUSH2 0x315 SWAP1 PUSH2 0x9FA JUMP JUMPDEST PUSH1 0x40 MLOAD DUP1 SWAP2 SUB SWAP1 REVERT JUMPDEST PUSH1 0x40 MLOAD DUP1 PUSH1 0x80 ADD PUSH1 0x40 MSTORE DUP1 DUP5 DUP2 MSTORE PUSH1 0x20 ADD DUP4 DUP2 MSTORE PUSH1 0x20 ADD TIMESTAMP DUP2 MSTORE PUSH1 0x20 ADD DUP3 DUP2 MSTORE POP PUSH1 0x1 PUSH0 DUP6 DUP2 MSTORE PUSH1 0x20 ADD SWAP1 DUP2 MSTORE PUSH1 0x20 ADD PUSH0 KECCAK256 PUSH0 DUP3 ADD MLOAD DUP2 PUSH0 ADD SSTORE PUSH1 0x20 DUP3 ADD MLOAD DUP2 PUSH1 0x1 ADD SSTORE PUSH1 0x40 DUP3 ADD MLOAD DUP2 PUSH1 0x2 ADD SSTORE PUSH1 0x60 DUP3 ADD MLOAD DUP2 PUSH1 0x3 ADD SWAP1 DUP2 PUSH2 0x381 SWAP2 SWAP1 PUSH2 0xBB5 JUMP JUMPDEST POP SWAP1 POP POP DUP3 PUSH1 0x2 DUP2 SWAP1 SSTORE POP DUP3 PUSH32 0x56FB4EB043B47A4C15EB4799BEB5DF7F6CDA99ED40D61C066279DF6EC30DD0AD DUP4 DUP4 PUSH1 0x40 MLOAD PUSH2 0x3BE SWAP3 SWAP2 SWAP1 PUSH2 0xC84 JUMP JUMPDEST PUSH1 0x40 MLOAD DUP1 SWAP2 SUB SWAP1 LOG2 POP POP POP JUMP JUMPDEST PUSH1 0x2 SLOAD DUP2 JUMP JUMPDEST PUSH0 DUP1 SLOAD SWAP1 PUSH2 0x100 EXP SWAP1 DIV PUSH20 0xFFFFFFFFFFFFFFFFFFFFFFFFFFFFFFFFFFFFFFFF AND DUP2 JUMP JUMPDEST PUSH0 PUSH1 0x40 MLOAD SWAP1 POP SWAP1 JUMP JUMPDEST PUSH0 DUP1 REVERT JUMPDEST PUSH0 DUP1 REVERT JUMPDEST PUSH0 DUP2 SWAP1 POP SWAP2 SWAP1 POP JUMP JUMPDEST PUSH2 0x417 DUP2 PUSH2 0x405 JUMP JUMPDEST DUP2 EQ PUSH2 0x421 JUMPI PUSH0 DUP1 REVERT JUMPDEST POP JUMP JUMPDEST PUSH0 DUP2 CALLDATALOAD SWAP1 POP PUSH2 0x432 DUP2 PUSH2 0x40E JUMP JUMPDEST SWAP3 SWAP2 POP POP JUMP JUMPDEST PUSH0 PUSH1 0x20 DUP3 DUP5 SUB SLT ISZERO PUSH2 0x44D JUMPI PUSH2 0x44C PUSH2 0x3FD JUMP JUMPDEST JUMPDEST PUSH0 PUSH2 0x45A DUP5 DUP3 DUP6 ADD PUSH2 0x424 JUMP JUMPDEST SWAP2 POP POP SWAP3 SWAP2 POP POP JUMP JUMPDEST PUSH2 0x46C DUP2 PUSH2 0x405 JUMP JUMPDEST DUP3 MSTORE POP POP JUMP JUMPDEST PUSH0 DUP2 SWAP1 POP SWAP2 SWAP1 POP JUMP JUMPDEST PUSH2 0x484 DUP2 PUSH2 0x472 JUMP JUMPDEST DUP3 MSTORE POP POP JUMP JUMPDEST PUSH0 DUP2 MLOAD SWAP1 POP SWAP2 SWAP1 POP JUMP JUMPDEST PUSH0 DUP3 DUP3 MSTORE PUSH1 0x20 DUP3 ADD SWAP1 POP SWAP3 SWAP2 POP POP JUMP JUMPDEST PUSH0 JUMPDEST DUP4 DUP2 LT ISZERO PUSH2 0x4C1 JUMPI DUP1 DUP3 ADD MLOAD DUP2 DUP5 ADD MSTORE PUSH1 0x20 DUP2 ADD SWAP1 POP PUSH2 0x4A6 JUMP JUMPDEST PUSH0 DUP5 DUP5 ADD MSTORE POP POP POP POP JUMP JUMPDEST PUSH0 PUSH1 0x1F NOT PUSH1 0x1F DUP4 ADD AND SWAP1 POP SWAP2 SWAP1 POP JUMP JUMPDEST PUSH0 PUSH2 0x4E6 DUP3 PUSH2 0x48A JUMP JUMPDEST PUSH2 0x4F0 DUP2 DUP6 PUSH2 0x494 JUMP JUMPDEST SWAP4 POP PUSH2 0x500 DUP2 DUP6 PUSH1 0x20 DUP7 ADD PUSH2 0x4A4 JUMP JUMPDEST PUSH2 0x509 DUP2 PUSH2 0x4CC JUMP JUMPDEST DUP5 ADD SWAP2 POP POP SWAP3 SWAP2 POP POP JUMP JUMPDEST PUSH0 PUSH1 0x60 DUP3 ADD SWAP1 POP PUSH2 0x527 PUSH0 DUP4 ADD DUP7 PUSH2 0x463 JUMP JUMPDEST PUSH2 0x534 PUSH1 0x20 DUP4 ADD DUP6 PUSH2 0x47B JUMP JUMPDEST DUP2 DUP2 SUB PUSH1 0x40 DUP4 ADD MSTORE PUSH2 0x546 DUP2 DUP5 PUSH2 0x4DC JUMP JUMPDEST SWAP1 POP SWAP5 SWAP4 POP POP POP POP JUMP JUMPDEST PUSH2 0x559 DUP2 PUSH2 0x472 JUMP JUMPDEST DUP2 EQ PUSH2 0x563 JUMPI PUSH0 DUP1 REVERT JUMPDEST POP JUMP JUMPDEST PUSH0 DUP2 CALLDATALOAD SWAP1 POP PUSH2 0x574 DUP2 PUSH2 0x550 JUMP JUMPDEST SWAP3 SWAP2 POP POP JUMP JUMPDEST PUSH0 DUP1 REVERT JUMPDEST PUSH0 DUP1 REVERT JUMPDEST PUSH32 0x4E487B7100000000000000000000000000000000000000000000000000000000 PUSH0 MSTORE PUSH1 0x41 PUSH1 0x4 MSTORE PUSH1 0x24 PUSH0 REVERT JUMPDEST PUSH2 0x5B8 DUP3 PUSH2 0x4CC JUMP JUMPDEST DUP2 ADD DUP2 DUP2 LT PUSH8 0xFFFFFFFFFFFFFFFF DUP3 GT OR ISZERO PUSH2 0x5D7 JUMPI PUSH2 0x5D6 PUSH2 0x582 JUMP JUMPDEST JUMPDEST DUP1 PUSH1 0x40 MSTORE POP POP POP JUMP JUMPDEST PUSH0 PUSH2 0x5E9 PUSH2 0x3F4 JUMP JUMPDEST SWAP1 POP PUSH2 0x5F5 DUP3 DUP3 PUSH2 0x5AF JUMP JUMPDEST SWAP2 SWAP1 POP JUMP JUMPDEST PUSH0 PUSH8 0xFFFFFFFFFFFFFFFF DUP3 GT ISZERO PUSH2 0x614 JUMPI PUSH2 0x613 PUSH2 0x582 JUMP JUMPDEST JUMPDEST PUSH2 0x61D DUP3 PUSH2 0x4CC JUMP JUMPDEST SWAP1 POP PUSH1 0x20 DUP2 ADD SWAP1 POP SWAP2 SWAP1 POP JUMP JUMPDEST DUP3 DUP2 DUP4 CALLDATACOPY PUSH0 DUP4 DUP4 ADD MSTORE POP POP POP JUMP JUMPDEST PUSH0 PUSH2 0x64A PUSH2 0x645 DUP5 PUSH2 0x5FA JUMP JUMPDEST PUSH2 0x5E0 JUMP JUMPDEST SWAP1 POP DUP3 DUP2 MSTORE PUSH1 0x20 DUP2 ADD DUP5 DUP5 DUP5 ADD GT ISZERO PUSH2 0x666 JUMPI PUSH2 0x665 PUSH2 0x57E JUMP JUMPDEST JUMPDEST PUSH2 0x671 DUP5 DUP3 DUP6 PUSH2 0x62A JUMP JUMPDEST POP SWAP4 SWAP3 POP POP POP JUMP JUMPDEST PUSH0 DUP3 PUSH1 0x1F DUP4 ADD SLT PUSH2 0x68D JUMPI PUSH2 0x68C PUSH2 0x57A JUMP JUMPDEST JUMPDEST DUP2 CALLDATALOAD PUSH2 0x69D DUP5 DUP3 PUSH1 0x20 DUP7 ADD PUSH2 0x638 JUMP JUMPDEST SWAP2 POP POP SWAP3 SWAP2 POP POP JUMP JUMPDEST PUSH0 DUP1 PUSH0 PUSH1 0x60 DUP5 DUP7 SUB SLT ISZERO PUSH2 0x6BD JUMPI PUSH2 0x6BC PUSH2 0x3FD JUMP JUMPDEST JUMPDEST PUSH0 PUSH2 0x6CA DUP7 DUP3 DUP8 ADD PUSH2 0x424 JUMP JUMPDEST SWAP4 POP POP PUSH1 0x20 PUSH2 0x6DB DUP7 DUP3 DUP8 ADD PUSH2 0x566 JUMP JUMPDEST SWAP3 POP POP PUSH1 0x40 DUP5 ADD CALLDATALOAD PUSH8 0xFFFFFFFFFFFFFFFF DUP2 GT ISZERO PUSH2 0x6FC JUMPI PUSH2 0x6FB PUSH2 0x401 JUMP JUMPDEST JUMPDEST PUSH2 0x708 DUP7 DUP3 DUP8 ADD PUSH2 0x679 JUMP JUMPDEST SWAP2 POP POP SWAP3 POP SWAP3 POP SWAP3 JUMP JUMPDEST PUSH0 PUSH1 0x20 DUP3 ADD SWAP1 POP PUSH2 0x725 PUSH0 DUP4 ADD DUP5 PUSH2 0x463 JUMP JUMPDEST SWAP3 SWAP2 POP POP JUMP JUMPDEST PUSH0 PUSH20 0xFFFFFFFFFFFFFFFFFFFFFFFFFFFFFFFFFFFFFFFF DUP3 AND SWAP1 POP SWAP2 SWAP1 POP JUMP JUMPDEST PUSH0 PUSH2 0x754 DUP3 PUSH2 0x72B JUMP JUMPDEST SWAP1 POP SWAP2 SWAP1 POP JUMP JUMPDEST PUSH2 0x764 DUP2 PUSH2 0x74A JUMP JUMPDEST DUP3 MSTORE POP POP JUMP JUMPDEST PUSH0 PUSH1 0x20 DUP3 ADD SWAP1 POP PUSH2 0x77D PUSH0 DUP4 ADD DUP5 PUSH2 0x75B JUMP JUMPDEST SWAP3 SWAP2 POP POP JUMP JUMPDEST PUSH32 0x4E487B7100000000000000000000000000000000000000000000000000000000 PUSH0 MSTORE PUSH1 0x22 PUSH1 0x4 MSTORE PUSH1 0x24 PUSH0 REVERT JUMPDEST PUSH0 PUSH1 0x2 DUP3 DIV SWAP1 POP PUSH1 0x1 DUP3 AND DUP1 PUSH2 0x7C7 JUMPI PUSH1 0x7F DUP3 AND SWAP2 POP JUMPDEST PUSH1 0x20 DUP3 LT DUP2 SUB PUSH2 0x7DA JUMPI PUSH2 0x7D9 PUSH2 0x783 JUMP JUMPDEST JUMPDEST POP SWAP2 SWAP1 POP JUMP JUMPDEST PUSH32 0x526571756573746564206669726D776172652072656C6561736520646F657320 PUSH0 DUP3 ADD MSTORE PUSH32 0x6E6F742065786973740000000000000000000000000000000000000000000000 PUSH1 0x20 DUP3 ADD MSTORE POP JUMP JUMPDEST PUSH0 PUSH2 0x83A PUSH1 0x29 DUP4 PUSH2 0x494 JUMP JUMPDEST SWAP2 POP PUSH2 0x845 DUP3 PUSH2 0x7E0 JUMP JUMPDEST PUSH1 0x40 DUP3 ADD SWAP1 POP SWAP2 SWAP1 POP JUMP JUMPDEST PUSH0 PUSH1 0x20 DUP3 ADD SWAP1 POP DUP2 DUP2 SUB PUSH0 DUP4 ADD MSTORE PUSH2 0x867 DUP2 PUSH2 0x82E JUMP JUMPDEST SWAP1 POP SWAP2 SWAP1 POP JUMP JUMPDEST PUSH32 0x43616C6C6572206973206E6F742074686520617574686F72697A65642061646D PUSH0 DUP3 ADD MSTORE PUSH32 0x696E6973747261746F7200000000000000000000000000000000000000000000 PUSH1 0x20 DUP3 ADD MSTORE POP JUMP JUMPDEST PUSH0 PUSH2 0x8C8 PUSH1 0x2A DUP4 PUSH2 0x494 JUMP JUMPDEST SWAP2 POP PUSH2 0x8D3 DUP3 PUSH2 0x86E JUMP JUMPDEST PUSH1 0x40 DUP3 ADD SWAP1 POP SWAP2 SWAP1 POP JUMP JUMPDEST PUSH0 PUSH1 0x20 DUP3 ADD SWAP1 POP DUP2 DUP2 SUB PUSH0 DUP4 ADD MSTORE PUSH2 0x8F5 DUP2 PUSH2 0x8BC JUMP JUMPDEST SWAP1 POP SWAP2 SWAP1 POP JUMP JUMPDEST PUSH32 0x56657273696F6E206D757374206265206D6F6E6F746F6E696320696E63726561 PUSH0 DUP3 ADD MSTORE PUSH32 0x73696E6700000000000000000000000000000000000000000000000000000000 PUSH1 0x20 DUP3 ADD MSTORE POP JUMP JUMPDEST PUSH0 PUSH2 0x956 PUSH1 0x24 DUP4 PUSH2 0x494 JUMP JUMPDEST SWAP2 POP PUSH2 0x961 DUP3 PUSH2 0x8FC JUMP JUMPDEST PUSH1 0x40 DUP3 ADD SWAP1 POP SWAP2 SWAP1 POP JUMP JUMPDEST PUSH0 PUSH1 0x20 DUP3 ADD SWAP1 POP DUP2 DUP2 SUB PUSH0 DUP4 ADD MSTORE PUSH2 0x983 DUP2 PUSH2 0x94A JUMP JUMPDEST SWAP1 POP SWAP2 SWAP1 POP JUMP JUMPDEST PUSH32 0x496E76616C69642063727970746F677261706869632068617368206964656E74 PUSH0 DUP3 ADD MSTORE PUSH32 0x6974790000000000000000000000000000000000000000000000000000000000 PUSH1 0x20 DUP3 ADD MSTORE POP JUMP JUMPDEST PUSH0 PUSH2 0x9E4 PUSH1 0x23 DUP4 PUSH2 0x494 JUMP JUMPDEST SWAP2 POP PUSH2 0x9EF DUP3 PUSH2 0x98A JUMP JUMPDEST PUSH1 0x40 DUP3 ADD SWAP1 POP SWAP2 SWAP1 POP JUMP JUMPDEST PUSH0 PUSH1 0x20 DUP3 ADD SWAP1 POP DUP2 DUP2 SUB PUSH0 DUP4 ADD MSTORE PUSH2 0xA11 DUP2 PUSH2 0x9D8 JUMP JUMPDEST SWAP1 POP SWAP2 SWAP1 POP JUMP JUMPDEST PUSH0 DUP2 SWAP1 POP DUP2 PUSH0 MSTORE PUSH1 0x20 PUSH0 KECCAK256 SWAP1 POP SWAP2 SWAP1 POP JUMP JUMPDEST PUSH0 PUSH1 0x20 PUSH1 0x1F DUP4 ADD DIV SWAP1 POP SWAP2 SWAP1 POP JUMP JUMPDEST PUSH0 DUP3 DUP3 SHL SWAP1 POP SWAP3 SWAP2 POP POP JUMP JUMPDEST PUSH0 PUSH1 0x8 DUP4 MUL PUSH2 0xA74 PUSH32 0xFFFFFFFFFFFFFFFFFFFFFFFFFFFFFFFFFFFFFFFFFFFFFFFFFFFFFFFFFFFFFFFF DUP3 PUSH2 0xA39 JUMP JUMPDEST PUSH2 0xA7E DUP7 DUP4 PUSH2 0xA39 JUMP JUMPDEST SWAP6 POP DUP1 NOT DUP5 AND SWAP4 POP DUP1 DUP7 AND DUP5 OR SWAP3 POP POP POP SWAP4 SWAP3 POP POP POP JUMP JUMPDEST PUSH0 DUP2 SWAP1 POP SWAP2 SWAP1 POP JUMP JUMPDEST PUSH0 PUSH2 0xAB9 PUSH2 0xAB4 PUSH2 0xAAF DUP5 PUSH2 0x405 JUMP JUMPDEST PUSH2 0xA96 JUMP JUMPDEST PUSH2 0x405 JUMP JUMPDEST SWAP1 POP SWAP2 SWAP1 POP JUMP JUMPDEST PUSH0 DUP2 SWAP1 POP SWAP2 SWAP1 POP JUMP JUMPDEST PUSH2 0xAD2 DUP4 PUSH2 0xA9F JUMP JUMPDEST PUSH2 0xAE6 PUSH2 0xADE DUP3 PUSH2 0xAC0 JUMP JUMPDEST DUP5 DUP5 SLOAD PUSH2 0xA45 JUMP JUMPDEST DUP3 SSTORE POP POP POP POP JUMP JUMPDEST PUSH0 SWAP1 JUMP JUMPDEST PUSH2 0xAFA PUSH2 0xAEE JUMP JUMPDEST PUSH2 0xB05 DUP2 DUP5 DUP5 PUSH2 0xAC9 JUMP JUMPDEST POP POP POP JUMP JUMPDEST JUMPDEST DUP2 DUP2 LT ISZERO PUSH2 0xB28 JUMPI PUSH2 0xB1D PUSH0 DUP3 PUSH2 0xAF2 JUMP JUMPDEST PUSH1 0x1 DUP2 ADD SWAP1 POP PUSH2 0xB0B JUMP JUMPDEST POP POP JUMP JUMPDEST PUSH1 0x1F DUP3 GT ISZERO PUSH2 0xB6D JUMPI PUSH2 0xB3E DUP2 PUSH2 0xA18 JUMP JUMPDEST PUSH2 0xB47 DUP5 PUSH2 0xA2A JUMP JUMPDEST DUP2 ADD PUSH1 0x20 DUP6 LT ISZERO PUSH2 0xB56 JUMPI DUP2 SWAP1 POP JUMPDEST PUSH2 0xB6A PUSH2 0xB62 DUP6 PUSH2 0xA2A JUMP JUMPDEST DUP4 ADD DUP3 PUSH2 0xB0A JUMP JUMPDEST POP POP JUMPDEST POP POP POP JUMP JUMPDEST PUSH0 DUP3 DUP3 SHR SWAP1 POP SWAP3 SWAP2 POP POP JUMP JUMPDEST PUSH0 PUSH2 0xB8D PUSH0 NOT DUP5 PUSH1 0x8 MUL PUSH2 0xB72 JUMP JUMPDEST NOT DUP1 DUP4 AND SWAP2 POP POP SWAP3 SWAP2 POP POP JUMP JUMPDEST PUSH0 PUSH2 0xBA5 DUP4 DUP4 PUSH2 0xB7E JUMP JUMPDEST SWAP2 POP DUP3 PUSH1 0x2 MUL DUP3 OR SWAP1 POP SWAP3 SWAP2 POP POP JUMP JUMPDEST PUSH2 0xBBE DUP3 PUSH2 0x48A JUMP JUMPDEST PUSH8 0xFFFFFFFFFFFFFFFF DUP2 GT ISZERO PUSH2 0xBD7 JUMPI PUSH2 0xBD6 PUSH2 0x582 JUMP JUMPDEST JUMPDEST PUSH2 0xBE1 DUP3 SLOAD PUSH2 0x7B0 JUMP JUMPDEST PUSH2 0xBEC DUP3 DUP3 DUP6 PUSH2 0xB2C JUMP JUMPDEST PUSH0 PUSH1 0x20 SWAP1 POP PUSH1 0x1F DUP4 GT PUSH1 0x1 DUP2 EQ PUSH2 0xC1D JUMPI PUSH0 DUP5 ISZERO PUSH2 0xC0B JUMPI DUP3 DUP8 ADD MLOAD SWAP1 POP JUMPDEST PUSH2 0xC15 DUP6 DUP3 PUSH2 0xB9A JUMP JUMPDEST DUP7 SSTORE POP PUSH2 0xC7C JUMP JUMPDEST PUSH1 0x1F NOT DUP5 AND PUSH2 0xC2B DUP7 PUSH2 0xA18 JUMP JUMPDEST PUSH0 JUMPDEST DUP3 DUP2 LT ISZERO PUSH2 0xC52 JUMPI DUP5 DUP10 ADD MLOAD DUP3 SSTORE PUSH1 0x1 DUP3 ADD SWAP2 POP PUSH1 0x20 DUP6 ADD SWAP5 POP PUSH1 0x20 DUP2 ADD SWAP1 POP PUSH2 0xC2D JUMP JUMPDEST DUP7 DUP4 LT ISZERO PUSH2 0xC6F JUMPI DUP5 DUP10 ADD MLOAD PUSH2 0xC6B PUSH1 0x1F DUP10 AND DUP3 PUSH2 0xB7E JUMP JUMPDEST DUP4 SSTORE POP JUMPDEST PUSH1 0x1 PUSH1 0x2 DUP9 MUL ADD DUP9 SSTORE POP POP POP JUMPDEST POP POP POP POP POP POP JUMP JUMPDEST PUSH0 PUSH1 0x40 DUP3 ADD SWAP1 POP PUSH2 0xC97 PUSH0 DUP4 ADD DUP6 PUSH2 0x47B JUMP JUMPDEST DUP2 DUP2 SUB PUSH1 0x20 DUP4 ADD MSTORE PUSH2 0xCA9 DUP2 DUP5 PUSH2 0x4DC JUMP JUMPDEST SWAP1 POP SWAP4 SWAP3 POP POP POP JUMP INVALID LOG2 PUSH5 0x6970667358 0x22 SLT KECCAK256 GAS PUSH15 0x9A0906C5F44A750A733B5DF050F04E 0xE0 CALL LOG2 PUSH31 0x2CE4AC195A0B25B7B905FD64736F6C63430008140033000000000000000000 "},"methodIdentifiers":{"admin()":"f851a440","getRelease(uint256)":"79af2b9a","latestVersion()":"c07f47d4","publishRelease(uint256,bytes32,string)":"b321505a"}}}}}