{
  "_format": "hh3-artifact-1",
  "contractName": "SecureOTARegistry",
  "sourceName": "contracts/SecureOTARegistry.sol",
  "abi": [
    {
      "inputs": [],
      "stateMutability": "nonpayable",
      "type": "constructor"
    },
    {
      "anonymous": false,
      "inputs": [
        {
          "indexed": true,
          "internalType": "uint256",
          "name": "version",
          "type": "uint256"
        },
        {
          "indexed": false,
          "internalType": "bytes32",
          "name": "sha256Hash",
          "type": "bytes32"
        },
        {
          "indexed": false,
          "internalType": "string",
          "name": "downloadUrl",
          "type": "string"
        }
      ],
      "name": "FirmwarePublished",
      "type": "event"
    },
    {
      "inputs": [],
      "name": "admin",
      "outputs": [
        {
          "internalType": "address",
          "name": "",
          "type": "address"
        }
      ],
      "stateMutability": "view",
      "type": "function"
    },
    {
      "inputs": [
        {
          "internalType": "uint256",
          "name": "_version",
          "type": "uint256"
        }
      ],
      "name": "getRelease",
      "outputs": [
        {
          "internalType": "uint256",
          "name": "version",
          "type": "uint256"
        },
        {
          "internalType": "bytes32",
          "name": "sha256Hash",
          "type": "bytes32"
        },
        {
          "internalType": "string",
          "name": "downloadUrl",
          "type": "string"
        }
      ],
      "stateMutability": "view",
      "type": "function"
    },
    {
      "inputs": [],
      "name": "latestVersion",
      "outputs": [
        {
          "internalType": "uint256",
          "name": "",
          "type": "uint256"
        }
      ],
      "stateMutability": "view",
      "type": "function"
    },
    {
      "inputs": [
        {
          "internalType": "uint256",
          "name": "_version",
          "type": "uint256"
        },
        {
          "internalType": "bytes32",
          "name": "_hash",
          "type": "bytes32"
        },
        {
          "internalType": "string",
          "name": "_url",
          "type": "string"
        }
      ],
      "name": "publishRelease",
      "outputs": [],
      "stateMutability": "nonpayable",
      "type": "function"
    }
  ],
  "bytecode": "0x608060405234801561000f575f80fd5b50335f806101000a81548173ffffffffffffffffffffffffffffffffffffffff021916908373ffffffffffffffffffffffffffffffffffffffff160217905550610ce88061005c5f395ff3fe608060405234801561000f575f80fd5b506004361061004a575f3560e01c806379af2b9a1461004e578063b321505a14610080578063c07f47d41461009c578063f851a440146100ba575b5f80fd5b61006860048036038101906100639190610438565b6100d8565b60405161007793929190610514565b60405180910390f35b61009a600480360381019061009591906106a6565b610209565b005b6100a46103cb565b6040516100b19190610712565b60405180910390f35b6100c26103d1565b6040516100cf919061076a565b60405180910390f35b5f8060605f60015f8681526020019081526020015f206040518060800160405290815f82015481526020016001820154815260200160028201548152602001600382018054610126906107b0565b80601f0160208091040260200160405190810160405280929190818152602001828054610152906107b0565b801561019d5780601f106101745761010080835404028352916020019161019d565b820191905f5260205f20905b81548152906001019060200180831161018057829003601f168201915b50505050508152505090505f815f0151036101ed576040517f08c379a00000000000000000000000000000000000000000000000000000000081526004016101e490610850565b60405180910390fd5b805f015181602001518260600151935093509350509193909250565b5f8054906101000a900473ffffffffffffffffffffffffffffffffffffffff1673ffffffffffffffffffffffffffffffffffffffff163373ffffffffffffffffffffffffffffffffffffffff1614610296576040517f08c379a000000000000000000000000000000000000000000000000000000000815260040161028d906108de565b60405180910390fd5b60025483116102da576040517f08c379a00000000000000000000000000000000000000000000000000000000081526004016102d19061096c565b60405180910390fd5b5f801b820361031e576040517f08c379a0000000000000000000000000000000000000000000000000000000008152600401610315906109fa565b60405180910390fd5b60405180608001604052808481526020018381526020014281526020018281525060015f8581526020019081526020015f205f820151815f0155602082015181600101556040820151816002015560608201518160030190816103819190610bb5565b5090505082600281905550827f56fb4eb043b47a4c15eb4799beb5df7f6cda99ed40d61c066279df6ec30dd0ad83836040516103be929190610c84565b60405180910390a2505050565b60025481565b5f8054906101000a900473ffffffffffffffffffffffffffffffffffffffff1681565b5f604051905090565b5f80fd5b5f80fd5b5f819050919050565b61041781610405565b8114610421575f80fd5b50565b5f813590506104328161040e565b92915050565b5f6020828403121561044d5761044c6103fd565b5b5f61045a84828501610424565b91505092915050565b61046c81610405565b82525050565b5f819050919050565b61048481610472565b82525050565b5f81519050919050565b5f82825260208201905092915050565b5f5b838110156104c15780820151818401526020810190506104a6565b5f8484015250505050565b5f601f19601f8301169050919050565b5f6104e68261048a565b6104f08185610494565b93506105008185602086016104a4565b610509816104cc565b840191505092915050565b5f6060820190506105275f830186610463565b610534602083018561047b565b818103604083015261054681846104dc565b9050949350505050565b61055981610472565b8114610563575f80fd5b50565b5f8135905061057481610550565b92915050565b5f80fd5b5f80fd5b7f4e487b71000000000000000000000000000000000000000000000000000000005f52604160045260245ffd5b6105b8826104cc565b810181811067ffffffffffffffff821117156105d7576105d6610582565b5b80604052505050565b5f6105e96103f4565b90506105f582826105af565b919050565b5f67ffffffffffffffff82111561061457610613610582565b5b61061d826104cc565b9050602081019050919050565b828183375f83830152505050565b5f61064a610645846105fa565b6105e0565b9050828152602081018484840111156106665761066561057e565b5b61067184828561062a565b509392505050565b5f82601f83011261068d5761068c61057a565b5b813561069d848260208601610638565b91505092915050565b5f805f606084860312156106bd576106bc6103fd565b5b5f6106ca86828701610424565b93505060206106db86828701610566565b925050604084013567ffffffffffffffff8111156106fc576106fb610401565b5b61070886828701610679565b9150509250925092565b5f6020820190506107255f830184610463565b92915050565b5f73ffffffffffffffffffffffffffffffffffffffff82169050919050565b5f6107548261072b565b9050919050565b6107648161074a565b82525050565b5f60208201905061077d5f83018461075b565b92915050565b7f4e487b71000000000000000000000000000000000000000000000000000000005f52602260045260245ffd5b5f60028204905060018216806107c757607f821691505b6020821081036107da576107d9610783565b5b50919050565b7f526571756573746564206669726d776172652072656c6561736520646f6573205f8201527f6e6f742065786973740000000000000000000000000000000000000000000000602082015250565b5f61083a602983610494565b9150610845826107e0565b604082019050919050565b5f6020820190508181035f8301526108678161082e565b9050919050565b7f43616c6c6572206973206e6f742074686520617574686f72697a65642061646d5f8201527f696e6973747261746f7200000000000000000000000000000000000000000000602082015250565b5f6108c8602a83610494565b91506108d38261086e565b604082019050919050565b5f6020820190508181035f8301526108f5816108bc565b9050919050565b7f56657273696f6e206d757374206265206d6f6e6f746f6e696320696e637265615f8201527f73696e6700000000000000000000000000000000000000000000000000000000602082015250565b5f610956602483610494565b9150610961826108fc565b604082019050919050565b5f6020820190508181035f8301526109838161094a565b9050919050565b7f496e76616c69642063727970746f677261706869632068617368206964656e745f8201527f6974790000000000000000000000000000000000000000000000000000000000602082015250565b5f6109e4602383610494565b91506109ef8261098a565b604082019050919050565b5f6020820190508181035f830152610a11816109d8565b9050919050565b5f819050815f5260205f209050919050565b5f6020601f8301049050919050565b5f82821b905092915050565b5f60088302610a747fffffffffffffffffffffffffffffffffffffffffffffffffffffffffffffffff82610a39565b610a7e8683610a39565b95508019841693508086168417925050509392505050565b5f819050919050565b5f610ab9610ab4610aaf84610405565b610a96565b610405565b9050919050565b5f819050919050565b610ad283610a9f565b610ae6610ade82610ac0565b848454610a45565b825550505050565b5f90565b610afa610aee565b610b05818484610ac9565b505050565b5b81811015610b2857610b1d5f82610af2565b600181019050610b0b565b5050565b601f821115610b6d57610b3e81610a18565b610b4784610a2a565b81016020851015610b56578190505b610b6a610b6285610a2a565b830182610b0a565b50505b505050565b5f82821c905092915050565b5f610b8d5f1984600802610b72565b1980831691505092915050565b5f610ba58383610b7e565b9150826002028217905092915050565b610bbe8261048a565b67ffffffffffffffff811115610bd757610bd6610582565b5b610be182546107b0565b610bec828285610b2c565b5f60209050601f831160018114610c1d575f8415610c0b578287015190505b610c158582610b9a565b865550610c7c565b601f198416610c2b86610a18565b5f5b82811015610c5257848901518255600182019150602085019450602081019050610c2d565b86831015610c6f5784890151610c6b601f891682610b7e565b8355505b6001600288020188555050505b505050505050565b5f604082019050610c975f83018561047b565b8181036020830152610ca981846104dc565b9050939250505056fea26469706673582212205a6e9a0906c5f44a750a733b5df050f04ee0f1a27e2ce4ac195a0b25b7b905fd64736f6c63430008140033",
  "linkReferences": {},
  "deployedLinkReferences": {},
  "immutableReferences": {},
  "inputSourceName": "project/contracts/SecureOTARegistry.sol",
  "buildInfoId": "solc-0_8_20-f0a9af292a14249086cec223f4e73d6d8929fa31"
}